:020000040020DA
:10200000286300208D2220004F8E20004D8E20005E
:102010004D8E20004D8E20004D8E200000000000CF
:10202000000000000000000000000000C59A200031
:102030004D8E200000000000E39A2000F18F200068
:1020400003902000099020000F90200015902000A0
:1020500000000000F78F2000FD8F20004D8E200033
:102060004D8E200000000000000000000000000075
:1020700000000000000000004D8E20000000000065
:1020800000000000000000004D8E20004D8E20005A
:102090004D8E20004D8E20004D8E20004D8E200054
:1020A0004D8E20004D8E20004D8E20004D8E200044
:1020B0004D8E20004D8E20004D8E20004D8E200034
:1020C0004D8E20004D8E20004D8E20004D8E200024
:1020D0004D8E200000000000000000000000000005
:1020E00000000000000000000000000000000000F0
:1020F0000000000000000000E9512000F95120001C
:1021000000000000000000000000000000000000CF
:1021100000000000000000000000000000000000BF
:1021200000000000000000000000000000000000AF
:10213000000000000000000000000000000000009F
:10214000000000000000000000000000000000008F
:10215000000000000000000000000000000000007F
:10216000000000000000000000000000000000006F
:10217000000000000000000000000000000000005F
:10218000000000000000000000000000000000004F
:10219000000000000000000000000000000000003F
:1021A000000000000000000000000000000000002F
:1021B000000000000000000000000000000000001F
:1021C000000000000000000000000000000000000F
:1021D00000000000000000000000000000000000FF
:1021E00000000000000000000000000000000000EF
:1021F00000000000000000000000000000000000DF
:1022000000000000000000000000000000000000CE
:1022100000000000000000000000000000000000BE
:1022200000000000000000000000000000000000AE
:10223000000000000000000000000000000000009E
:10224000000000000000000000000000000000008E
:10225000000000000000000000000000000000007E
:10226000000000000000000000000000000000006E
:102270004D8E2000CD502000F15020006D472000F1
:10228000695320007D4220004D8E200008B5094B87
:10229000FF221A600848094A4824E369121A0849CB
:1022A00098470848084AA369121A0021984701F084
:1022B000DBFCFEE7B4200D4040400020FA44002043
:1022C000E4AD200000450020255B002038B50388E0
:1022D000044615462BB1642B08D00023038003204D
:1022E00038BD00F0BFFC6423238003E0074B1B785C
:1022F0008B4201D0012038BD002DFBD0284606F0CE
:10230000F5FC0146284600F0E5FAECE7235B0020E7
:102310002DE9F041884614461F46054608B9804617
:102320000D4D0CB927460C4C2E46731B984504DD09
:1023300016F8010B06F07AFEF7E725462B1B9F42A5
:1023400004DD15F8010B06F071FEF7E70348BDE860
:10235000F04106F083BE00BFE9A22000DCA220000D
:10236000034903464A780348097803F04BB800BF95
:102370001C5B0020DEA220000021014803F062BEA9
:102380004040002070B50646144806F078FF044629
:1023900060B10120A58B05F08BF9854202D1314651
:1023A000204616E0204606F0ABFFF0E70C4806F0AA
:1023B000BAFF054688B13022214606F0A5FA012071
:1023C00005F076F92946A883044806F075FF3146E2
:1023D0002846BDE8704006F03EBD70BD184500209F
:1023E000504000202DE9F04FA9B0249006F0BEFE29
:1023F000002006F0B9FE1D90012006F0B5FE1E90EB
:10240000062006F0B1FE0646072006F0ADFEA84CF9
:10241000DFF8B8B26368DFF8B8A21F932368DFF86B
:10242000B4922093A34BA44D1A681C931D9BDFF814
:10243000A8829B1A2193DBF800201E9B07469B1A5B
:10244000DAF800202293B31AD9F800201A93831ADD
:102450001B932A681F9B00209B1A2593D8F8002005
:10246000209B9B1A269306F07FFE1C9B1860012080
:1024700006F07AFECBF80000062006F075FECAF8DA
:102480000000072006F070FE23681B9AC8F8003091
:102490006368C9F800002B601A9B072013441C9343
:1024A000229A219B9D181E9A1D9B9C1806F05CFE8B
:1024B0008046062006F058FE08EB0003239301F047
:1024C00063FE6423F2195A43B2FBF4F20E921C9A93
:1024D000DFF8088203FB02FE1A9A1B9903FB02F93C
:1024E0001B9A03FB07FA03FB02FB98F80020BBFBD7
:1024F000F5FB279242F210725143B1FBF5F103FB59
:102500001B11199102FB07F1BAFBF4FAB1FBF4F1CC
:1025100003FB1A1117911A99B9FBF5F95143B1FB55
:10252000F5F103FB191103FB06FC159102FB06F103
:10253000BCFBF4FCB1FBF4F103FB1C1113911C99DF
:10254000BEFBF5FE5143B1FBF5F5F1194A43B2FB71
:10255000F4F20E9903FB1E5503FB1122269BCDF8C6
:1025600048C00D93259BCDF840E00C931B9BCDF804
:1025700060B00B931A9BCDF858A00A93229B11953B
:102580000993219B0F92CDF850900893209B4B4DBF
:1025900007931F9B059706931E9B049603931D9B11
:1025A000024602932B682499019398F8013044481D
:1025B0000093279B02F026FF424806F060FEC346C8
:1025C0000446AA46002C6BD001F0DEFD226AD4F846
:1025D00010C01A92626AE3681B92A28B1B9D1D9227
:1025E0001A9AD4F82CE02A449BF80050D4F81480AE
:1025F0001E9542F21075A76AD4F8189003EB0C01EF
:102600007244414449443A448A1A55431C9EC7EBDC
:102610000807B5FBF6F5119564256A43B2FBF6F29F
:10262000109242F2107202FB01F66943239A0B9753
:10263000B1FBF2F1B6FBF2F61D9A0E910D92CEEBC4
:1026400009020F960C92CDF82890CDF82480A2684C
:1026500008921B9AC2EB0C0207921A9ACDF814C08A
:102660009A1A069204936368024603931D9B249969
:102670000293DAF80030144801939BF8013000937C
:102680001E9B02F0BFFEE36820462362236963625B
:102690006369A362A369E36206F032FE044691E730
:1026A000064A13680133136029B0BDE8F08F00BFFC
:1026B000A05A002014450020204500203C4800205E
:1026C0002FA3200018450020C7A320001C45002090
:1026D0003848002010450020344500201C5B0020B5
:1026E00010B50388044613B1D02B0AD014E012B9F8
:1026F0000280022010BD1168094806F038FDD02381
:102700002380074806F045FD48B1054806F038FD2E
:102710000448FFF767FEF2E700230380032010BDA3
:1027200024450020E9A2200007B502A941F8040DC4
:10273000024803F087FC03B05DF804FB684000200A
:10274000014803F0EDBB00BF6840002010B1012834
:1027500003D07047024803F091BE014803F094BED5
:102760005C4000202DE9F04F87B01E46BDF8403098
:1027700088460193BDF84430174602931623038020
:10278000044601F001FD00256080A58006F0EEFC06
:10279000284606F0E9FCDFF8C8B0DFF8C8A0DBF88F
:1027A0000050DFF8C490451B012006F0DDFCDAF88C
:1027B0000030C21A0620059206F0D6FCD9F8003087
:1027C000C11A0720049106F0CFFC244BCDF80C90E1
:1027D00099461A680499801A059AB5F5803F04D382
:1027E0006D08520849084008F7E7B2F5803FF7D274
:1027F000B1F5803FF4D2B0F5803FF1D22281618102
:10280000A081E580002006F0AFFCCBF8000001209D
:1028100006F0AAFCCAF80000062006F0A5FC039BFF
:102820001860072006F0A0FCB8F80030C9F80000D6
:10283000E381BDF804302782A382BDF808306682A8
:10284000E3821422002104F1180006F05DF820460E
:1028500007B0BDE8F04F06F029BB00BF4848002094
:10286000404800204C4800204448002003882BB1F9
:10287000682B06D000230380032070476823038061
:1028800003E0064B1B68994201D001207047936812
:10289000D2689B18F2D1038002207047A059002013
:1028A000F0B5044685B000680F4616461D4606F092
:1028B0007BFC50B10A9B6A460393054B206819784C
:1028C00000970296019503F0B3FB05B0F0BD00BF81
:1028D000A059002030B5037885B07E2B04460D4604
:1028E0000F4B09D142784B2A06D118680D4B9842FC
:1028F00013D003F015FB10E0186806F055FC60B12A
:10290000094B6A46019300230393084B00941978FE
:10291000034B0295186803F08BFB05B030BD00BF78
:1029200050480020F4400020E9A22000A0590020D7
:1029300038B50388054683B90A4A0B490B4806F0A7
:10294000D4FA0B4806F09BFC044634B1A168054A52
:10295000064806F0CAFA2468F7E700232B80032014
:1029600038BD00BFE9A2200046A420007840002026
:102970006C48002010B5044648B142680449054837
:1029800006F0B3FAE068BDE8104003F0C9BA10BD24
:102990005AA42000C040002038B5094806F06FFC5A
:1029A0000446084D54B1AC4206D0E06806F0FCFB8A
:1029B00010B12046FFF7DEFF2468F3E738BD00BF03
:1029C0006C480020C04000202DE9F84388460446AA
:1029D0002378621C202B01D11446F9E721460023FD
:1029E000084611F8012B8AB17B2A01D10133F7E7A0
:1029F0007D2A01D1013BF3E77C2AF1D1002BEFD1F5
:102A0000414600F8013BFFF7DFFF8046621E0023CE
:102A1000202012F8011F59B17B2903D103B910708E
:102A20000133F6E77D29F4D1013B08BF1070F0E7D0
:102A30002021204605F0B6FF064600B101362046AB
:102A400006F054F900222044031B002B05DD10F88A
:102A5000013D202B01D10270F6E72EB9204606F089
:102A600045F90746261801E0371B013F194806F0D3
:102A700006FC054675B1D5F804903A46214648460D
:102A800006F062F908B12D68F4E719F80730002B59
:102A9000F9D107E02046104906F016FA4046FFF744
:102AA00069FF13E0E86806F07FFB08B9A84507D185
:102AB0000A49204606F008FA00232B611D4605E06E
:102AC000C5F810803146E86803F0BCFA2846BDE836
:102AD000F88300BF6C48002086A420006CA420006E
:102AE00038B5044640F2B91510462288AA422DD0C6
:102AF000B2F5DD7F07D26AB9204B8521186803F053
:102B000079FA258020E0B2F5DF7F07D040F2C913C3
:102B10009A422BD000232380032038BD184B1B681A
:102B2000994211D1174D81682B460022006806F0AA
:102B300004FA2B686BB9144A144B1A601448FFF757
:102B40000FFC4FF4DF732380012038BD8529FBD1B2
:102B5000F4E70028EFD1184606F026FB0028EAD05B
:102B60000A4B2A681A6040F2C913ECE78729EBD1B7
:102B7000044B1B688342E7D1DDE700BF644A0020B5
:102B8000A059002068480020F44000205048002050
:102B9000EE4400202DE9F04103880646154643BB6C
:102BA0000AB1137823B9154A1549164806F09DF95C
:102BB000154806F064FB0446DFF84880A4B161685C
:102BC000284605F057FF074660B944450AD0E0683B
:102BD00006F0EAFA30B12046FFF7CCFE378002203B
:102BE000BDE8F0812468E9E72A460849054806F06F
:102BF0007CF9002333800320BDE8F081E9A22000A6
:102C0000A7A420003C4100206C480020D2A4200052
:102C100070B50546124806F032FB0446002644B162
:102C20006968606805F026FF00280FDA26462468E8
:102C3000F5E72EB92946BDE87040094806F049BBC2
:102C40002946BDE87040064806F036BB002EF1D09C
:102C50002A463146BDE87040014806F049BB00BF36
:102C60006C48002010B5144806F006FB1348FFF727
:102C7000CFFF1348FFF7CCFF1248FFF7C9FF1248F8
:102C8000FFF7C6FF1148FFF7C3FF1148FFF7C0FF6A
:102C90001048FFF7BDFF03F03BF90F4C0F4B00212D
:102CA0001860204603F0CEF900210D4803F0CAF960
:102CB0000C4B1C6010BD00BF6C4800207840002009
:102CC00060410020C04000203C4100201441002011
:102CD0008C40002028410020F4400020A059002012
:102CE000B040002050480020F0B500B303461D4618
:102CF0002A780133202AFAD00D4B4FF00A0E1F68B4
:102D000000231C462A5DBE187678760707D50EFB91
:102D1000032201340A2CA2F13003F3D103E029B1DC
:102D200014B9086002E009B12C440C601846F0BDEB
:102D3000E844002008B501F031FA024B1B68184442
:102D400008BD00BF6448002010B5044601F026FA13
:102D5000014B201A186010BD6448002073B5038829
:102D6000054616463BB140F2DB1293420DD00023DC
:102D70000380032030E04FF4A061184806F0F7F913
:102D800040F2DB1301202B8026E087291AD114485A
:102D900006F075FA0446002CF2D0E3689E4201D09A
:102DA0002468F8E70026206940B1C36833B10D4BB1
:102DB0000096002219460C30FFF772FD2469002CA2
:102DC000F1D1DDE78829DBD1044806F0D9F9FFF716
:102DD000B1FFFFF7B9FFD3E702B070BD5448002040
:102DE0006C480020E9A22000832910B5044602D1D6
:102DF000072001F00FF82388462B22D003D83BB1DF
:102E0000432B10D03EE0492B28D04C2B33D039E057
:102E10001E4A1F491F4806F068F880211E4806F028
:102E2000A6F9432323801C4806F0B3F908B9002013
:102E300010BD012000F0E6FF174806F0A1F9462377
:102E40002380154806F0A5F90028F0D0022000F0F4
:102E5000D9FF114806F094F9492323800E4806F063
:102E600098F90028E3D0042000F0CCFF0A4806F0CF
:102E700087F94C232380084806F08BF90028D6D028
:102E800001F04CFB00232380032010BDE9A22000A9
:102E9000D8A5200084410020704800200148FFF799
:102EA000B7BE00BF84410020F0B5832985B0054638
:102EB0000F46144605D1454B1B6813B1072000F09F
:102EC000B3FF2E88472E3DD001D82EB165E04C2EA1
:102ED0001FD0552E3DD060E0002C5AD003A92046CB
:102EE000FFF702FF3A4B1860039B9C4251D04021F0
:102EF000384806F03CF9384B1E6015E0354806F0BE
:102F00003FF9072000F090FF304B00221A604C235D
:102F10002B80304806F03DF9C8B12E4806F030F954
:102F20002D4A1368013313602B4B1A68284B1B681A
:102F30009A4222DA072000F077FF244B01221A6020
:102F400047232B80234806F024F90028D6D10020FF
:102F500039E0882F02D11F4B9C4212D01F4B1B68B7
:102F60009F4216D1A268E368184ED71819D133686A
:102F70001BB1072000F058FF376000232B80022090
:102F800021E0124C236823B1072000F04DFF0023FD
:102F9000236055232B80012015E000232B80032084
:102FA00011E0009394E80A000D4805F0E0FF336853
:102FB00023B9072000F038FF0123336008210548BA
:102FC00006F0D5F8E5E705B0F0BD00BF8048002069
:102FD000984800208848002084480020A0590020FC
:102FE000984100200148FFF713BE00BF9841002020
:102FF00073B50688044615464EB9104605F076FEB0
:1030000000960246044B2946044805F0B0FF002311
:103010000320238002B070BDE9A22000CC41002033
:103020002DE9F0430388A3B080461646F3B18A2BFE
:1030300020D00023038003205AE002AC2546D6F8B6
:1030400000900027B36809EB07029F4220DBD6F807
:1030500004900027F36809EB07029F4230DBAC4283
:1030600004D0254A2946254805F03FFF8A23A8F8C1
:10307000003003E0224B1B68994201D0012037E069
:10308000B368F2689B18D8D1A8F8003002202FE06E
:10309000013B9F42DBDA13882046ADF80630BDF8CD
:1030A0000620184902F0D2F90444631B792B05D994
:1030B000114A2946114805F018FF2C460237C1E78E
:1030C000013B9F42CBDA13882046ADF80630BDF8AD
:1030D00006200C4902F0BAF90444631B792B05D988
:1030E000054A2946054805F000FF2C460237B1E79E
:1030F00023B0BDE8F08300BFE9A220001842002001
:10310000A05900204BA620002DE9F043038891B080
:1031100007461646F3B15C2B1FD000230380032023
:1031200050E0D6F8009001ACC8462546B368C9EB1C
:10313000080293421EDCD6F80490C846F368C9EB37
:10314000080293422ADCAC4204D0204A2946204897
:1031500005F0CBFE5C233B8003E01E4B1B689942CD
:1031600001D001202EE0B368F2689B18D9D13B80D2
:10317000022027E0013B9342DDDD204638F8022B98
:10318000154902F063F90444631B312BCED90F4A71
:1031900029460F4805F0A9FE2C46C7E7013B93429C
:1031A000D1DD204638F8022B0B4902F04FF90444D8
:1031B000631B312BC2D9054A2946054805F095FE07
:1031C0002C46BBE711B0BDE8F08300BFE9A22000A8
:1031D000F4410020A05900204FA6200030B50388FC
:1031E00085B005462BB1BD2B08D0002303800320FA
:1031F0001FE0114A1360BD232B8003E00F4B1B68B7
:10320000994201D0012014E0D36894680A4A1C4412
:10321000136823441360002CEDD1094A0A2101A848
:1032200005F07FFF0748084A01A905F05EFE2C80E3
:10323000022005B030BD00BF9C480020A0590020EE
:1032400057A62000E0410020E9A2200008B5074869
:10325000FFF7DEFC0648FFF7DBFC0648FFF7D8FC6B
:10326000BDE808400448FFF7D3BC00BF1842002067
:10327000F4410020CC410020E041002030B503881B
:1032800089B0054614465BBB42B103A91046FFF75F
:103290002BFD039B9C4201D0FFF756FD00F074FF0D
:1032A000ADF8120000F0A8FF4FF6FF730024ADF850
:1032B0001830ADF81400ADF81640FFF73BFD000CD8
:1032C000ADF81A00FFF736FD062308A921F8103DD6
:1032D000ADF81C000094054B0E22054805F047FE92
:1032E000002303202B8009B030BD00BFE9A22000DD
:1032F000A042002070B5038894B00546144653B32D
:10330000832B2BD000230380032033E023681B880A
:103310000333ADF80830FFF70DFD000CADF80A00DF
:10332000FFF708FDA6682168422E4FF00003ADF8B4
:103330000C0001F10201D4BFB21E402204A8ADF876
:103340000E3005F06BFAE368B21D009302A96368C2
:10335000094805F00CFE83232B8003E0074B1B6814
:10336000994201D0012005E0A368E2689B18CDD105
:103370002B80022014B070BDB4420020A059002060
:1033800002480349826805F0B0BD00BF7C420020BE
:10339000F8A820002DE9FF413B4B05461B680F466E
:1033A0009942144609D19268E368DA4205D0009345
:1033B000364894E80A0005F0DAFD40F20B122B883B
:1033C000934252D0B3F5867F35D0002B55D12CB91E
:1033D000FFF7D6FF00232B80022051E003A92046EF
:1033E000FFF782FC039E2A4BB4421860F0D003A979
:1033F0003046FFF779FC039B80469E42E8D0194691
:103400000A780133202AFAD0224E4022304605F0B5
:10341000E9FC3378002BDBD04FEAC8111E4805F0D9
:10342000A6FE1E4B00221A6010E01D4B9C421ED1CE
:103430004FF486732B80184805F0ABFEB8B11648E0
:1034400005F09EFE154A136801331360104B1B688C
:103450007BB91049124802F0F5FD124A8521104847
:1034600002F0C8FD40F20B132B80872FDDD0002027
:1034700006E00A4A12689342EBDC00232B8003200B
:1034800004B0BDE8F08100BFA05900207C420020BC
:10349000D4480020D0570020B0480020C048002069
:1034A0005C420020DC42002030B51D4B91B01B680F
:1034B000044699422CD00388AB2B06D0B42B21D0E4
:1034C00033BB184B1A60AB231AE0852924D1164B65
:1034D0009A4221D1134B40221968684605F082FCBC
:1034E000684605F003FC114D01462B46104A68461C
:1034F00005F023FD286858B105F056FE40B1B4230D
:10350000238009E0872907D1084B1B689A4203D121
:1035100000232380032000E0012011B030BD00BF54
:10352000A0590020C8480020DC420020C4480020E8
:103530007C42002040F24D13F7B5068804469E42B7
:1035400015463CD0B6F5AC7F51D0002E55D11AB9F6
:103550002D4A2E492E4820E0104601A9FFF7C4FB52
:10356000019B2C4A9D421060174607D1264A2A49E2
:10357000274805F0BAFC2680022043E019460A7865
:103580000133202AFAD0254D4022284605F02AFC96
:103590002D7835B91C4A2249224805F0A6FC258021
:1035A000EAE702F0A7FE3B68DB0190FBF3F101FBC9
:1035B00013011D4805F0DBFD40F24D1323801A482E
:1035C00005F0E7FDF0B1154805F090FB174D104AE6
:1035D00001462B461269114805F0AFFC286860B11E
:1035E00005F0E2FD48B14FF4AC73238009E0872970
:1035F00007D10E4B1B689D4203D10023238003207B
:1036000000E0012003B0F0BDE9A2200007A72000E0
:10361000C8420020CC4800200FA7200010580020EE
:1036200017A720007C420020A0480020D04800209E
:1036300008B50748FFF7ECFA0648FFF7E9FA06482D
:10364000FFF7E6FABDE808400448FFF7E1BA00BF1B
:10365000A0420020B44200207C420020C84200204A
:103660007FB5018805461646C1B91046FFF73CFBF9
:10367000044606B128B9FFF763F80B48FEF7B2FE1F
:103680000CE0C001FFF750F82246084901A801F0FC
:10369000DDFE01AA0649074805F027FC00230320A8
:1036A0002B8004B070BD00BFE9A2200053A8200009
:1036B00056A82000EC42002008B50448FFF7A8FAFD
:1036C000BDE808400020FFF741B800BFEC420020F1
:1036D00073B5038806461446FBB901A91046FFF7E7
:1036E00003FB019B9C420F4C09D10F4D22680F49EF
:1036F000284605F0FAFBAA680D4928460BE020B1E0
:103700006369984722680B4904E0A3690120984740
:1037100022680949044805F0E8FB002303203380B0
:1037200002B070BD94A1200010430020DBA820004F
:10373000F4A8200000A9200015A920002DE9F341DC
:103740000388064614463BB140F20B12934213D055
:1037500000230380032041E0104601A9FFF7C4FACB
:10376000019A204B944208BF0F22186008BF1A60CC
:1037700040F20B13338003E01B4B1B68994201D0CE
:1037800001202BE0A368E5685D1902D13580022095
:1037900024E07F2DECDC03F035FF281D80B203F020
:1037A0008BFE03F0C9FE074600F10408A2682168F9
:1037B000404605F033F8A068E2686168404405F0CF
:1037C0002DF8002229463A80404605F01CFD054BA5
:1037D00078801968054803F031FDC9E702B0BDE8FB
:1037E000F08100BFD8480020A0590020A459002033
:1037F00010B50388044613B1F12B0AD010E0012163
:103800000A4806F0EAF80A4B01201860F1232380E9
:1038100010BD084B1B68994206D1054B00221A6067
:1038200000232380032010BD012010BDA4590020D7
:10383000DC480020A059002070B50646008886B0FC
:1038400040BB0446042303900490ADF81400ADF887
:103850000C3003F095FD84421CDA204603F09EFDF7
:103860000546011D0DF10E0006F061F9A91D04A821
:1038700006F05DF96B7A0A22ADF812302B7A03A9B3
:10388000ADF81430002300930548064B05F06FFB9C
:103890000134DEE700230320338006B070BD00BF93
:1038A0007C430020E9A220002DE9F7430388064667
:1038B00014466BB3942B03D000230380032050E005
:1038C000294B1B68994225D1DFF8B480D8F80090C5
:1038D0004746B9F1000F1FD0DFF8A080A268E36867
:1038E000D8F80050134459197F2920492BDC53B3D1
:1038F0000F682168781904F091FFA368E2681D44FD
:103900007819616804F08AFFE3681D44C8F8005024
:1039100094233380012024E003F074FE03F05CFD67
:103920000546C8F8000030B9114A1249124805F09E
:10393000DCFA358014E003F09FFD0C4B18600F4B50
:10394000C3F80090C8E700240094094B2A46096890
:10395000094805F00CFB386803F060FD3C603480DA
:10396000022003B0BDE8F083A0590020E448002005
:10397000E9A220003EA9200054430020E048002096
:10398000E84800202DE9F04188B00F4616468046F1
:1039900003F0D2FD034600689B880390ADF8103019
:1039A00003F0CAFD1B4B04461B687BB303F08EFD7E
:1039B00003282BD903F08AFD0434011F002220467E
:1039C000BDF80E5005F01FFC85421FD103F07EFDAF
:1039D0000223043890FBF3F34146053308AD0DF1A3
:1039E000160025F80C3D06F0A2F80023ADF81C30B7
:1039F000ADF81870ADF81A6003F068FD0438009057
:103A000023460A222946044805F0B1FA08B0BDE869
:103A1000F08100BFDC480020A043002010B50E4C10
:103A20000E4B01222046182103F0B2FB4FF49631D1
:103A3000204605F0CEFF0A48FFF7EAF80948FFF7ED
:103A4000E7F80948FFF7E4F80848FFF7E1F8BDE8B0
:103A500010400748FFF7DCB8A4590020E49F20007D
:103A6000A043002010430020544300207C4300204A
:103A7000684300202DE9F043078889B080469146CD
:103A800077BB104605F032F9602804460BDD03468B
:103A9000174A2021684605F044FB6A461549164836
:103AA00005F023FA1CE003F0ADFD03F045FD0646EA
:103AB000E01CB51C80B203F0FFFC4946284605F027
:103AC000B7F833199F703A462146284605F09BFB0C
:103AD00029463080094801F095FC094805F01CFE94
:103AE00000230320A8F8003009B0BDE8F08300BF30
:103AF00053A820008CAA2000D4430020A5AA2000AF
:103B0000F0480020F8B506880546144616B1602E28
:103B100016D01DE01146144801F074FC204605F053
:103B2000E5F8124F01463B463246204605F005FABD
:103B300070B9386805F038FB50B160232B800BE07A
:103B400083290BD0872907D1084B1B689C4203D1DE
:103B500000232B800320F8BD0120F8BD034B18681B
:103B600002F0DEF9F4E700BFBAAA2000EC4800201A
:103B700013B503F0E1FC044603F0A8FC03281AD9AE
:103B80000E4802F0CDF903F0A1FCC11E631800221B
:103B90009A7034F8023B2046ADF8063005F033FB4E
:103BA000BDF80630834206D12146044802B0BDE884
:103BB000104002F047BA02B010BD00BFE843002039
:103BC00008B50648064B1D224FF4007102F078FD3F
:103BD000BDE808400348FFF71BB800BFF0480020CD
:103BE000E89F2000D443002070B503888EB00646BD
:103BF00023BB1549A1F16C0005F0D1FD044610B1BD
:103C000005F03DFE0446114805F0E2FD054602F0D0
:103C1000CBFC0F49C0F3CF10ADB2B1F8F030224663
:103C20000190EC3103A80095FEF79CFD0023009362
:103C30002C22084B03A9084805F099F9002303201A
:103C400033800EB070BD00BF905A0020245A00206F
:103C5000A4590020E9A22000084400200148FEF7F2
:103C6000D7BF00BF0844002073B500F05FFC00F030
:103C700019FD00F075FC00F061FA01F063FB05F03E
:103C800098FA00F007FD00F0B3F8012005F082F982
:103C900002F04CF900F02EFC002000F049FB01205E
:103CA00000F046FB4049002000F00EFC02F084FAD0
:103CB00062B6042005F06EF93C4805F0CFF93C48A7
:103CC00005F0CCF900F0DCF9002002F023FB01F054
:103CD00023FA0021374802F0B5F901F08DFF05F015
:103CE00085F900F067FD00F083FD03F003FD082176
:103CF000684601F04DFB9DF807309DF806502E4CAC
:103D000043EA0525BDF806302C48238001F07AFBF4
:103D10002B4E21782B4801F075FB61782A4801F081
:103D200071FBF46A4AF6CD310220A04729460320F0
:103D3000A0471A210120A04708226946736B0B2077
:103D40009847224801F05EFB214B186805F086F980
:103D5000204801F057FB204B186805F07FF91F48F9
:103D600001F050FB1E4B186805F078F900211D4842
:103D700002F068F91C4B01219B688120984705F0EF
:103D8000F2F91A4805F0E5F900F0BAFB022005F057
:103D900001F900F0BBFB02F0E1F810F0FF0FF8D1E1
:103DA00001F064FAF5E700BF7561200085AB2000E3
:103DB000A1AB2000544400201C5B0020C6AB2000B7
:103DC000D4A02000E4AB2000EAAB2000F0AB200040
:103DD00038A12000F7AB200078A12000FEAB200026
:103DE00094A1200074440020EC9F2000D0A120006A
:103DF00008B500F0E5F8024B00221A7008BD00BFBC
:103E000050580020024A13781843107000F0FCB894
:103E100050580020034A137823EA0000107000F085
:103E2000F3B800BF50580020024A13785840107071
:103E300000F0EAB85058002020B1012805D1044B09
:103E400018787047034B186870470020704700BF10
:103E50005158002020900D4010B5094A00201378D9
:103E600001331370074B197802F0C4F8BDE8104015
:103E700005490023054A0968054801F0F3BE00BF63
:103E8000515800201E5B0020A4490020593E20000C
:103E90007C490020812808B52AD0B0F5807F39D030
:103EA000802839D102F034F81C4B1D4A1870136871
:103EB000032123F00803136052F8203C002023F074
:103EC000080342F8203C52F81C3C23F0080342F857
:103ED0001C3C52F8183C43F0080342F8183C0422FA
:103EE00000F0EEFB032200210E4800F08BFB13E0F4
:103EF0000D4B0E481A6829B142F008021A600123DE
:103F0000036005E022F008021A600123C0F8803047
:103F1000084608BD064B1960012008BD1E5B002045
:103F200020940D40353F200010940D4000E100E04A
:103F3000A449002008B50F4805F049F9C8B1082187
:103F40000C4805F038F90C4B196869B10B4B00228D
:103F50001A700B4B1B6823B90A4A0B4801F082FE0A
:103F600002E0094801F088FEBDE80840074802F079
:103F7000A3B908BD9C490020A44900205158002045
:103F800020900D40593E20007C490020EC9F2000ED
:103F9000084A136823F00403136052F8203C43F0EE
:103FA000040342F8203C044B00221A60034B012218
:103FB0001A70704720C40D4010C00D4052580020A8
:103FC0000D4A0E49136823F0C003136052F8203CD9
:103FD00043F0C00342F8203C094B00221A600B68F2
:103FE00023F010030B6051F8203C43F0100341F81C
:103FF000203C044B1A60704720A40D4020C40D40A3
:1040000000A30D4040C00D4000F0020202F0FF018D
:104010000B4B12B1FF221A6000E0196000F004029D
:1040200002F0FF01074B12B1FF221A6000E0196095
:1040300010F00100044B1ABFFF221A60186070478D
:1040400000A20D4000A10D4040C00D40044B186877
:10405000C0F30720030904BF1030C0B2704700BF8F
:104060001C300D40054B1868C0F3C21001289ABFE0
:10407000C0F1020040034FF40040704714300D407F
:104080002DE9F04788B0FFF7E1FF174B48251C6882
:10409000AB68074698476B68804698470546FFF728
:1040A000E1FF064600F096FA814600F09FFA82464C
:1040B00000F04CFAB60A04F00103AD0AC4F3400460
:1040C00006900393CDF814A0CDF8109002940196B9
:1040D000009507F00F03C7F307124146034801F0AC
:1040E00091F908B0BDE8F0871C300D400CAC200001
:1040F000F8B500F081F80F4B0024D3E900673A4689
:10410000B04238BF7A1C15460443C3E90045DFF8C6
:1041100028E0DEE90001821B61EB070312196B4105
:10412000CEE9002301F05CFE18B1BDE8F84001F0D3
:10413000DBBDF8BD00450020084500200D4B0E4AB0
:10414000E0215A600D4A82F82310002207219A606C
:1041500019600B490B6843F001030B60094B1A60AF
:10416000042243F80C2C012243F8082C0F22DA62B7
:10417000704700BF10E000E047E8010000ED00E0FC
:1041800008200D400C000340034BD3E90023100A24
:1041900040EA0360704700BF00450020034BD3E9AD
:1041A0000023D00B40EA4340704700BF0845002081
:1041B000054B18601C3B1A6842F001021A601A682D
:1041C000D207FCD4704700BF2800034010B5064C4E
:1041D000236823F001032360FFF78AFF236843F07D
:1041E0000103236010BD00BF10E000E0014B186820
:1041F000704700BFA8490020074B084A19680433DC
:104200001B681268120442EA0323054A0B43106834
:1042100043EA0060704700BF40500D4048500D40D9
:104220004C500D4010B50446104A1368DB07FCD50E
:1042300072B6FFF7E1FF231A062BD8BFC41D0C4B43
:10424000220E1A60C4F3074243F8042CC4F3072279
:1042500043F8082CE2B243F80C2C62B6054B4FF43D
:1042600000321C60044B1A6110BD00BF50500D405D
:104270004C500D40A849002000E100E008B500F0D6
:10428000D9FF074B00221A60064B4FF40032C3F8E7
:104290009021C3F89020BDE8084001F009BF00BF9D
:1042A000A849002000E100E0064B1B681B075FBF28
:1042B000054B186880F00800C0F3C00048BF00201C
:1042C000704700BF18C0004018D00040164A2C2389
:1042D00003FB00234FF6BF7270B5DC680546236C04
:1042E00062649BB213F050020DD0104EA369DB063E
:1042F00008D456F825301BB12068C0B29847F5E7BE
:104300002368F3E770BD13F4D06F0BD04FF4407304
:104310002363FF236360E36AE262E362236B43F09B
:104320000103236370BD00BFFC9F2000AC49002047
:1043300001282DE9F74F064600F2B6802C254543AB
:104340005B4F7C1994F92080B8F1000FC0F2AC806B
:1043500094F92290B9F1000FC0F2A680554800F000
:10436000DFFF554A7B591168E5680B4313605168BC
:10437000636894F921A00B4353609168A3685FFAC6
:1043800089FB0B4393600023C5F8C83F23690AEB00
:10439000C8021A6094F92330227D00939DF8003002
:1043A00058461946019300F095F9019B08221946D9
:1043B000584600F085F9414A4FEA0939009959F801
:1043C0000200012303FA01F1014349F802104FEA08
:1043D000083858F8020003FA0AF1014348F80210BD
:1043E0005021A963A96B94F9240041F4D061A96319
:1043F000022169634FF440712963A1690028696251
:10440000E169A9624FF07001E962154616DB94F983
:104410002510A2F5A64241EAC0041C3A1460040328
:1044200062598B40134363510022C9B2C0B200F0FD
:1044300047F9234A136843F4004313602C2303FB1A
:10444000067393F92640002C1BDB93F927A05FFA33
:1044500084F85FFA8AF9012249464046240300F0B5
:1044600039F96259012303FA0AF31343635108220D
:104470004946404600F024F9114A136843F480434A
:1044800013602C2303FB0676F268136B43F00103E1
:10449000136396F828300122590903F01F0302FA2A
:1044A00003F3084A42F8213003B0BDE8F08F00BFA3
:1044B000FC9F2000A942200028200D4020940D40A0
:1044C00030D0004000E100E001289CBF014B43F8E0
:1044D00020107047AC490020012808D8044B2C223A
:1044E00002FB0030C3689A699206FCD419607047D9
:1044F000FC9F2000014B00221A60704700500D40C5
:10450000014B08221A60704700500D40024BA02258
:104510001A6050221A60704700500D4072B6024B6C
:104520000B221A60FEE700BF00500D40014B024A0B
:104530009A60704700ED00E000202000024B1868F0
:10454000C0F38150704700BF04200D4008B5FFF74D
:10455000F5FF024B53F8200008BD00BF54A0200017
:1045600038B5164D164C2B68012223F040032B6002
:104570002368062123F040032360032000F0A0F805
:104580002B68012223F080032B602368072123F08E
:1045900080032360032000F093F80A4A0A4B0B497A
:1045A0001A600A680A4B1340084A002BF9D11368B5
:1045B0005901FCD413685B01FCD538BD20C40D4003
:1045C00000C40D400101020000200D4004200D40F8
:1045D00000000101034B04481B6803F00703184166
:1045E000704700BF04200D400048E801034B044819
:1045F0001B68C3F302231841704700BF04200D401D
:104600000048E801024B02EBC10243F82200704768
:10461000B4490020F8B507460E46094D002405EBC5
:10462000411547FA04F3DB07E1B204D555F824300D
:104630000BB1304698470134082CF2D1F8BD00BFC9
:10464000B44900202DE9F04780464FEA0837DFF8EB
:10465000409007F1804505F5592500F0EBFDD5F8B0
:10466000186457F809304FEAC80A23FA0AF446EAF0
:104670000400E4B24146C0B2F6B204FA0AF4FFF70D
:10468000C9FFC5F81C6447F80940BDE8F08700BFC2
:1046900018970D4080220021014804F035B900BF71
:1046A000B4490020034A044B1A60044B803A1A6054
:1046B000704700BF80400D40384A0020344A002037
:1046C000034B01EBC0011B6843F82120704700BF7A
:1046D000384A0020034B01EBC0011B6843F821203E
:1046E000704700BF344A00200E2870B50BD1154B1F
:1046F000154E1C6844F002051D60356825F03F0327
:1047000043F001033360114E336823F0FF031A4373
:10471000114301430E4A316013681B06FCD50D4B53
:104720000D4A1B6812680E2803F0FC0343EA0223BB
:1047300008BF054A1BB204BF1560024A184608BFED
:10474000146070BD34000144F486084008700D40C8
:1047500000700D400C700D4010700D40024B186839
:10476000B0FA80F04009704700B7084010B5074B19
:104770004FF40042064CC3F89021C3F89020206803
:1047800018B101F077FC0023236010BD00E100E0C8
:104790003C4A0020064A136843F002031360536842
:1047A00043F002035360936843F002039360704741
:1047B00048200D4007B50C4800F0B2FDFFF7EAFFB6
:1047C0000A4B1A6842F002021A6000220192019A12
:1047D0000F2A02DC019A0132F8E71A6822F002027D
:1047E0001A6003B05DF804FB5D47200054200D40C3
:1047F000064A136823F002031360536823F0020390
:104800005360936823F002039360704748200D4083
:10481000084B93F90020002A09DB074AED211160BB
:104820001160E32111601A7862F07F021A70012092
:10483000704700BF56580020388808400C4A13685B
:104840009907FCD40A4B1B685B065FBF094BED223E
:104850001A601A60084B1B6813B1064BEF221A60EE
:10486000064A0120137803F07F031370704700BFDE
:104870004C860840388808402C860840565800204E
:1048800038B5A0F10B04E3B20F2B054613D80B4B40
:104890001B6813F03F0302D0FFF7D0FF012304EBA6
:1048A0008404074A0B3414600BB1FFF7B1FF054BCA
:1048B00068B21D7038BD4FF0FF3038BD48860840E3
:1048C0003C860840F944002010B50B4B1B68990644
:1048D00003D1FFF79DFF012300E0002307490A6889
:1048E000D207FCD5064A1468C4F300140BB1FFF7D5
:1048F000A5FF204610BD00BF4886084064860840DA
:104900004C860840044B186800F02200A0F12003F8
:1049100058425841704700BF4C860840024B186807
:1049200000F04000704700BF4C86084038B50C4688
:10493000002900F08880102800F28780DFE800F06E
:10494000090F1A1C23394254596F738585787A7C74
:104950007F003F4B1B68003318BF012370E03D4BC5
:1049600005221B6803F07F030B3B93FBF2F30B3331
:10497000DBB265E0384B00E0384B1A68043B1B683B
:1049800043EA02235CE000230B60354B354A1B6889
:1049900003F001030B601268900644BF43F002036A
:1049A0000B60314B1B78002B4BD00B6843F004039A
:1049B00046E02E4B00201B780860002B41D00123DD
:1049C0000B6038BD2A4B2B491A680023D2B201EB89
:1049D000C3000079904203D8264A52F833302FE0C2
:1049E00001330E2BF3D127E0234B1B685BB2493B0D
:1049F00026E0224B1B68990603D1FFF709FF01232C
:104A000000E000231E490A68D207FCD51D4A15683C
:104A1000493D6DB20BB1FFF711FF256011E01A4B54
:104A200093F900300CE0194B1B7803F07F0307E08B
:104A30000B2305E01A2303E06FF0170300E00723C0
:104A40002360002038BD022038BD012038BD00BFE2
:104A50002C8608403C860840CC850840D485084018
:104A6000008608402486084055580020F84400205D
:104A70004086084064A020005886084048860840C8
:104A8000648608406086084054580020535800202F
:104A900038B505460C46134A13689B07FCD4124BE5
:104AA00093F90030002B01DBFFF7B2FE0F4BEE2233
:104AB0001A60691E1A60A21C43F8102C21440220BF
:104AC00000F044FB013C0A4924012143022000F08C
:104AD0004FFB022000F056FB022000F06BFB002091
:104AE00038BD00BF4C860840565800203888084022
:104AF00002C001C0F8B5214B93F90030002B0DDB4B
:104B0000FFF77AFB0546FFF783FE6FF00904641B8D
:104B1000FFF772FBC442FBD4012600E00026184BCD
:104B20001B7823B9174D2B68990604D405E0FFF7CD
:104B3000CBFE0028F6D10220F8BD134CE9232360F8
:104B400004272B689A0707D4013F17F0FF0703D00B
:104B50000620FFF72DFBF4E72B689B0704D4EE2318
:104B600023602360012403E02C6814F00204FBD1CD
:104B70000EB1FFF763FE2046F8BD00BF5658002077
:104B8000F84400204C86084038880840214B1870B3
:104B9000002834D0204A13681B03FCD51F4B1A6829
:104BA00042F002021A601A6842F001021A601A68A2
:104BB0001A495007FBD50A6822F001020A601968F9
:104BC000164A4907FBD4116841F0020111601168CF
:104BD00041F0010111601A685207FCD5104A1368B0
:104BE00023F004031360D2F8A83123F00403C2F8C1
:104BF000A8310C4B4FF40052C3F890207047084A7C
:104C0000136843F004031360064B4FF400521A611B
:104C1000704700BF5558002004200D40048808400C
:104C20008C86084000E100E010B50C46072861D8EA
:104C3000DFE800F0040E181C233F455B012902D178
:104C4000FFF7E6FD4BE0002958D1FFF7F7FD46E0FE
:104C5000A1F10B030F2B51D8C8B2FFF711FE0130A1
:104C60003DD149E08CB2E2B2254B02E08CB2254B3B
:104C7000E2B2240A1A605C6031E031F007033DD1F2
:104C8000214B11F0010F1A68C1F3800014BF42F0EC
:104C9000010222F001021A601C4B11F0020F1A6887
:104CA00014BF42F0200222F020021A60FFF76EFFCC
:104CB00015E031F0010021D1154B197010BD01F143
:104CC00018031F2B1AD813490D2351F83300DA00AB
:104CD000844206DC0F4B13441A790F4B1A600020F4
:104CE00010BD13F1FF33F0D2F9E7CCB20B4B4934CE
:104CF0001C60F4E7012010BD032010BD022010BD90
:104D0000C8850840D08508400086084024860840B1
:104D1000F844002064A020004086084058860840DF
:104D20000B280DD1082A0DD161B1074B074A083174
:104D300011F8010D43F8040F9342F9D10020704798
:104D40000120704702207047A4850840C4850840B0
:104D500070B52F4D2B6813F0400308D02D4E3368EB
:104D6000DCB21B0605D52C4BED221A601A60002020
:104D700070BD042CF7D9023C8C42F4DCE4B2032C65
:104D800021D001190139032000F0E8F9631E2349FD
:104D90001B011943032000F0EBF9032000F0F2F9A6
:104DA000032000F007FA032000F010FA0028FAD1DF
:104DB00031681B4B493949B219703368194E1806CE
:104DC0003370D0D506E033680370336843703368BE
:104DD0008370EDE789B2042002F062FC3178032091
:104DE00001F07F0102F05CFC0F4B1B7873B92B685C
:104DF0005A060BD5064B1B681B0603D50B4801F062
:104E000039F903E0044BED221A601A60204670BDA8
:104E10004C860840288808403888084002C0010CA9
:104E20005458002053580020555800202C4400208E
:104E3000F8B5294F3D7815F001054BD1274B0124DA
:104E40001C605C609C60A3F59323A3F51473F822A7
:104E50001A600922C3F89021152270331A6003F5F5
:104E60009B230B2203F59E731A60A3F59B23A3F5E6
:104E7000F07340221A601A687F2642F020021A60FE
:104E8000D52243F81C5CDE62DA61154B1878FFF717
:104E9000F7FC144B4FF480421E60134B02201A6142
:104EA00000F07CF91149022000F058F9032000F0CD
:104EB00075F90E49032000F049F90D4B1878FFF7FA
:104EC00065FE29460B4801F0BDF83B782046234398
:104ED0003B70F8BD0020F8BD56580020A8200D40BA
:104EE000F94400209486084000E100E0288808404A
:104EF000555800202C44002038B503880446CBB117
:104F000040F20342934203D000230380032038BDC4
:104F1000194B18781A4628B11B7873B1174B1B78B8
:104F200058060AD5822908D1137843B1134B1A7851
:104F3000520614D440F203432380012038BD02F00E
:104F400061FB02F0F9FA8021FFF702FF0028EDDD96
:104F500080B202F0B1FA0A4B1B699847E6E70022DB
:104F60001A70084B1D68FFF769FCFFF761FFAB067D
:104F7000E0D0FFF74DFCDDE75558002056580020E3
:104F800094A12000488608400B282DE9F84F0E46D2
:104F900010D1082A40F0828000297FD0414B424A3C
:104FA0004E1E53F8041D934206F8011FF9D100204C
:104FB000BDE8F88F0C286ED1042A6FD100296DD07E
:104FC0003A4B3B481A68DFF8F8C022F007021A6033
:104FD0000268DFF8F0A042F008020260DAF8004050
:104FE000DCF800101A68DFF8E0E022F07002314FC0
:104FF0001A60DEF800203D68E4B2090244EA056464
:1050000001F47F411204214302F47F020A432A493A
:105010000024D1F800805FFA88F544EA02081A6893
:10502000A94622F0070242F001021A60026842F02B
:1050300008020260DAF80000DCF800201D68C0B247
:1050400025F0700545F010051D60DEF800303D6864
:10505000120240EA056002F47F421B04024303F49B
:105060007F0313430A6844EA030A5FFA82FBFFF7EF
:10507000C3F8B8EB0A0869EB0B094FEAC9310546DA
:105080000E4A00234FEAC83041EA584103F004FABF
:10509000281A30608BE70120BDE8F88F0220BDE8B8
:1050A000F88F00BFC8850840A885084010880840D0
:1050B00004880840208808401C8808400048E8010F
:1050C00018880840148808402488084008B5054B13
:1050D0001B7813B9044800F0CDFF044B00221A607E
:1050E00008BD00BF555800202C44002034880840DB
:1050F000064B07481A68042A1FBF06490A7842F07F
:1051000040020A7000221A6000F0B4BF2C880840E8
:105110002C4400205658002010B5094C4022002194
:10512000204603F0F1FB074B01221A605C60064B3E
:105130004FF480425A604FF400425A6010BD00BFE5
:105140000040002004F00F4000E100E003289EBF73
:10515000014B0001195070470040002003289EBFFA
:10516000024B03EB00104160704700BF004000207D
:1051700003289EBF024B03EB00108160704700BF05
:1051800000400020032806D8034901220B6802FAD8
:1051900000F018430860704728F00F40032806D835
:1051A000034901220B6802FA00F0184308607047B7
:1051B00020F00F40032806D8034901220B6802FAA9
:1051C00000F018430860704714F00F4003289FBF99
:1051D000044B03EB0010806800F0070088BF00203C
:1051E000704700BF00400020024B4FF0FF321A60B2
:1051F000704700BF04F50F40014B01221A60704751
:105200004CF00F40094A1368084913F4801FFAD183
:10521000074B1A6822F480321A600A68D203FCD461
:105220001A6842F400321A60704700BF04200D4033
:1052300000200D4010B50B4B1A681C4612F0030FEE
:105240000ED009490B68084A13F0806FFAD1136831
:105250005B01FCD5FEF7BAFFFFF7D4FF0023236004
:1052600010BD00BF58200D4004200D4038B5264B1E
:105270001C6814F03F0413D1244D55F8243023B199
:10528000984768B10134052CF7D1214D2B783BB1FB
:10529000FEF7ACFF0446FEF7AFFF201A092801D83D
:1052A00030BF38BD002CFBD01A4B1B481A6822F4C3
:1052B00000321A600268184912F4801FFAD11A6885
:1052C00042F480321A600B68DB03FCD5FEF794FFD2
:1052D000201A092803D8BDE83840FFF793BF632898
:1052E0000E4C02D92B78022B00D00123236000F052
:1052F00077FE20B1FFF786FF0023236038BDFEF75D
:1053000075FF0028CCD1F5E748860840404A0020C8
:105310005758002000200D4004200D4058200D401B
:105320000749002351F82320824207D01AB9044AC2
:1053300042F8230070470133052BF3D1704700BFBB
:10534000404A0020054B00221A60054A136943F0C9
:1053500004031361034B02221A70704758200D405A
:1053600000ED00E05758002010B5074B4FF4803295
:10537000064CC3F89021C3F89020206818B100F0C3
:1053800079FE0023236010BD00E100E0544A0020B4
:1053900030B5184B1A78431E22B101F52011273180
:1053A000154A1FE0154A1278122AF6D1144A1278CB
:1053B0004B2AF2D14A0802F12814B4F1281F04D074
:1053C00014F8015D03F8015FF7E701F520112731BB
:1053D00000231044934204DA11F80149C454013304
:1053E000F8E730BD914204D011F8010903F8010F2C
:1053F000F8E730BD2B002800270028002A002800ED
:10540000290028000FB407B504AA52F8041B044869
:10541000019200F04DF803B05DF804EB04B0704762
:105420003C4400201FB51446074A8DE80300029251
:1054300021461A4602A8CDF80CD000F039F8009B9E
:1054400000221A7004B010BDFB9020000EB43FB5CE
:10545000094B07AA52F8041B0190049304A801AB5E
:105460000392059300F024F8019B00221A7006B005
:105470005DF804EB03B070473D91200070B5054620
:105480000C46102C07D92B681022084968689847E9
:1054900050B9103CF5E734B12B68224668680349DF
:1054A000BDE870401847204670BD00BF2CAD2000FD
:1054B0002DE9F04F064615468FB006914FF0000BD0
:1054C000069B1B78CBB1069C274617F8013B1BB106
:1054D000252B14D03C46F7E7069BA3420DD0069B34
:1054E0000699C3EB04084246336870689847002861
:1054F00040F01F832378C34423B9584634E3069B06
:10550000A342ECD16378002BF7D03946002408463B
:1055100010F8013B0A462B2B11D006D8202B11D0B6
:10552000232B12D144F0080416E02D2B04D0302B8D
:105530000BD144F010040FE044F001040CE044F0FF
:10554000060409E044F0020406E0A3F13107082F45
:1055500011D84FF0000801E00146D8E70A4611F8DB
:10556000013BA3F13000092813D80A2202FB0838B6
:10557000A8F13008F2E72A2B09D12B680246002B4C
:1055800005F10405B8BF44F00104984601E04FF06E
:10559000000813782E2B1AD15178531CA1F130003A
:1055A00009280ED8194600270A780B46A2F13000C8
:1055B000092801F101010DD80A2303FB0727303F19
:1055C000F2E72A2904D12F68931C043502E0134620
:1055D0004FF0FF371A786C2A09D15A786C2A02D119
:1055E00044F080040AE0013344F060040BE0682AD0
:1055F00009D15A78682A03D144F02004023302E02A
:10560000013344F040041A78642A3CD01FD8462A5B
:1056100048D00DD8252A5AD003D8002A3FF46DAFC0
:1056200057E0412A4AD0452A53D144F4424450E03D
:10563000582A31D004D8472A4BD144F4A13448E049
:10564000612A38D0632A44D144F4A06441E06E2A30
:105650003AD007D8662A22D027D3672A28D0692AC9
:1056600011D036E0732A2CD006D86F2A11D0702AB8
:105670002FD144F440742CE0752A07D0782A28D121
:1056800044F4C85425E044F4245422E044F4106463
:105690001FE044F488541CE044F4B24419E044F49C
:1056A000007416E044F4844413E044F4024410E02F
:1056B00044F481340DE044F4C1340AE044F4E134AC
:1056C00007E044F4806404E044F4E06401E044F45E
:1056D000C0640133069304F4E063B3F5806F00F017
:1056E0008F8113D8B3F5807F27D0B3F5407F7FF447
:1056F000E7AEAE4B14F4804FAD4A18BF1A460DF119
:1057000033032868002104351F46B5E1B3F5C06FA7
:1057100008D0B3F5E06F00F02282B3F5A06F7FF4FC
:10572000CFAEF2E133680122A249706898470028A1
:1057300040F0FF810BF1010BC2E6002FACBF24F05B
:105740001004012714F40053079304F0E0032ED053
:10575000402B12D005D8ABB1202B21D195F90020D8
:105760000DE0602B0ED0802B1AD1073525F00703F2
:1057700003F10805D3E9002307E0B5F90020D317AA
:10578000043502E02A680435D317002A73F10001BA
:1057900008DA524263EB4303CDE90023012304E01E
:1057A00000220023CDE900230023059329E0402BAC
:1057B00013D004D8BBB1202B1DD12A780EE0602B6A
:1057C00011D0802B17D1073525F0070303F1080509
:1057D000D3E90023CDE900230BE02A880023CDE99B
:1057E0000023043505E02B6800221946CDE900129C
:1057F0000435079BD9E70023059300220023CDE958
:10580000002304F4C053B3F5805F0CD0B3F5C05F40
:1058100033D0B3F5006F4FD1DDE900230DF1360928
:10582000CDE9022304E0DDE900230DF1360915E09E
:10583000DDE9022313433AD0DDE902010A22002305
:1058400002F02AFEDDE90201303209F8012D0023C1
:105850000A2202F021FECDE90201E9E752EA030142
:1058600025D002F00701303109F8011DD10841EAC5
:105870004371D8080A460346F0E74C4B14F4804FB6
:105880000DF136094A4918BF1946DDE9002352EAED
:1058900003000CD002F00F00085C4FEA131E09F859
:1058A000010D100940EA037002467346EFE70DF15F
:1058B0003603C9EB030302E00DF13609002302931E
:1058C000029B41F60802BB4238BFFF1A41F20803AF
:1058D00002EA040228BF00279A4202D1002F08BF23
:1058E000012741F60801029B8A4203EB07000DD114
:1058F000DDE90023134309D02F4A304914F4804FC7
:105900004FF0020A0CBF0B46134602E04FF0000AAC
:105910005346079A9AB1059A52B904F00602022A30
:105920000AD0062A264A04BF4FF0010A134606E0B1
:105930004FF0010A234B02E0234B4FF0010A0AEB20
:10594000000290458CBFC2EB08084FF0000814F02D
:10595000010200920DD1E10602D54744904608E0CD
:10596000414630460593FFF789FD059B002840F02E
:10597000E080BAF1000F07D03468524619467068CB
:10598000A047002840F0D580029B03EB0B04BB46E8
:10599000BBF1100F33681BD910220C49706898476F
:1059A000002840F0C680ABF1100BF1E7F7AC200007
:1059B00008AD20002AAD20001CAD200019AD20004C
:1059C00021AD20001FAD20003CA920003CAD2000EF
:1059D000BBF1000F06D05A46654970689847002809
:1059E00040F0A7803368029A49467068544498474B
:1059F000002840F09E80009B3C44002B39D032E0D0
:105A0000D5F800900435B9F1000F0AD0CA469AF8CB
:105A100000300AF101020BB19246F8E7C9EB0A0A1D
:105A200003E0DFF850914FF0060A002F02DBBA4581
:105A300028BFBA46D0458CBFCAEB08084FF0000813
:105A400014F0010705D141463046FFF717FD002845
:105A50006FD133685246494670689847002868D12C
:105A60000AEB0B042FB141463046FFF707FD002833
:105A70005FD108EB040B23E550EA010E0ED000F0D5
:105A80000F0E12F80EE04FEA111C03F801ED4FEA79
:105A9000101E4EEA017E70466146EDE7FF1A02BF16
:105AA0003022012703F8012C07F1030708BF03F197
:105AB000FF337822B84503F8012C4FF0300203F889
:105AC000022C88BFC7EB08084FF0230298BF4FF0A5
:105AD000000814F00104A3F1030903F8032C04D116
:105AE00041463046FFF7CAFC18BB33683A46494680
:105AF00070689847E8B95F4424B141463046FFF7E3
:105B0000BDFCB0B908EB070BDAE4B8F1010F2B6864
:105B10008CBF08F1FF384FF0000814F0010405F1C4
:105B200004058DF8203008D141463046FFF7A6FC29
:105B300010B14FF0FF3017E0C3443368012208A9C9
:105B4000706898470028F4D108F101072CB141464C
:105B50003046FFF793FC0028EBD1BB44B0E42B6840
:105B60000435C3F800B0ABE40FB0BDE8F08F00BF60
:105B70003CAD200023AD2000F8B50388064615464D
:105B80002BB14A2B15D0002303800320F8BD174802
:105B900003F075FB04462CB1A168201D03F0E7FA61
:105BA0002468F8E7124B01221A704A23338001203F
:105BB000F8BD8829FBD10D4803F061FB0446002C99
:105BC000F3D0231D9D420ED12146084803F061FB0E
:105BD000084B62691F681A60A2691D460AB1E06934
:105BE00090472F60E1E72468E9E700BF584A0020AA
:105BF00058580020644A002010B5064B002406487F
:105C00001C7003F039FB2146BDE81040034800F04A
:105C100019BA00BF58580020584A002044440020B8
:105C200070B50446E3610B4B049D1B786561A2616E
:105C300043B1094D094B2E68201D2B6003F097FAE4
:105C40002E6000E0A1602146BDE87040044803F0EA
:105C500033BB00BF58580020644A00204444002051
:105C6000584A002013B5034C24680094FFF7D8FF6E
:105C700002B010BD644A002010B5084B04461B78E2
:105C80001BB1043000F0B4F801E0C36003612146A9
:105C9000BDE81040024803F0FCBA00BF585800208D
:105CA000584A002010B50E4C236813B90D4A1360F2
:105CB00010BDFEF769FA216891E80C001A44131A26
:105CC0008A6842B192E812002144091A8B4228BF27
:105CD0000B469268F5E71844024B186010BD00BFF0
:105CE0005C4A0020604A0020014800F0C3B900BFB0
:105CF000544400202DE9F8430388054633B1592B5D
:105D00000BD0002303800320BDE8F883234A1360EF
:105D100059232B800120BDE8F883872924D08229CC
:105D2000F6D11E4F4FF00008B9463C680026002C03
:105D3000EED0204603F04BFA98B122468821E06865
:105D400000F058F958B9E060A3680EB1B36001E003
:105D5000C9F80030C4F80880FFF7A4FFE5E7FFF7B3
:105D6000C3FF2646A468E2E70C4900200B681BB974
:105D70000028CDD00B60CBE7DC68A24202D19B6843
:105D80000120F4E700B10B6099680029C0D0C86811
:105D900082420ABF89680B469960F5E75C4A002099
:105DA00010B50446FFF7A0FFE3680B4A4BB1136838
:105DB0003BB1A34203D1094A1268DA6007E09B684D
:105DC000F6E7064B1B68E36013681460A360BDE848
:105DD0001040FFF767BF00BF5C4A0020644A002004
:105DE000024B1868003018BF012070475C4A002041
:105DF00010B50B4A04461368834206D183681360CA
:105E000008E09A68944203D01346002BF9D103E0CE
:105E1000A2689A60FFF746FF0023A360E36010BD0D
:105E20005C4A002038B5836804460D469BB10A4899
:105E300004600220A07304F10C0098470238012886
:105E400001D9832D05D121462046BDE8384000F018
:105E500005B80123A37338BD644A00202DE9F84337
:105E60001C4A0446156889462B4690461A4E3768E8
:105E7000A34204D00BB11B68FAE7BDE8F88334B342
:105E8000A37BABB10023A37345B1A54204D0224646
:105E90008721284603F082F92D68F5E7A3683BB116
:105EA0004C4505D034602A46832104F10C00984704
:105EB000D8F800309C4203D12268064B05E0134617
:105EC00023B11A689442FAD122681A603760BDE89B
:105ED000F88300BF684A0020644A0020002370B5A0
:105EE0001D46094A01261370084A146854B1E37B21
:105EF00033B1A673E573002282212046FFF792FF9B
:105F00002468F3E770BD00BF5B580020684A00209A
:105F1000024B1878421C1A70704700BF5C58002072
:105F2000014B1968FFF79ABF644A0020064B8A228A
:105F30001A70064A00231370054A1370054A13604D
:105F4000054A1360704700BF5C5800205958002074
:105F50005A580020684A0020644A00202DE9F04188
:105F60001A4D2B780BB1FFF7B9FF194C22783AB3D1
:105F7000184E0C213378184F5943781817F80180C0
:105F800001334768806803F01F03013A33702270C1
:105F900068B9124B1E689EB12B780BB1FFF79EFFBC
:105FA00030463A46414603F0F9F83668F3E7B8F16F
:105FB000810F04BF012383733A46414603F0EEF894
:105FC0002B7820781844BDE8F08100BF5B58002092
:105FD0005A580020595800206C4A0020684A002076
:105FE000024A034B10781B78184470475A58002017
:105FF0005B580020F0B50B4E3378202B0FD00A4CA5
:106000000C252478094F1C4404F01F046C43013311
:106010003D19A86039556A6033700020F0BD012039
:10602000F0BD00BF5A580020595800206C4A00208B
:1060300038B5034C256803F0B1F8256038BD00BFC2
:10604000644A002030B40A4C0A4625682B46834235
:106050000CD00BB11B68FAE740B1012105608173D8
:1060600020608381812130BCFFF7E2BF30BC7047E4
:10607000684A002038B1837B013B012B9FBF024A55
:106080000123C373137070475B580020024610B59C
:10609000064853600468029B11609360026014B963
:1060A0000846FEF7BFF8002010BD00BFEC4B0020F3
:1060B00010B5084C206858B10023236081684368FC
:1060C0009847236823B1BDE810401868FEF7AAB8C6
:1060D00010BD00BFEC4B002070B505880446672D4D
:1060E00009D0792D30D0002D34D1FFF711FF1C4B92
:1060F00018701C4B1D601B4D2E461B4803F0ACF85E
:10610000431C01D167231DE00A28164A07D02B68DB
:106110007E2BF2DC5A1C3260144AD054EDE713682F
:106120000025591C1160114A2846D5540C4B19788A
:10613000FFF760FF0E4B2A4685211868FFF75AFFCC
:1061400020B97923238009E0852907D1054B002256
:106150001A60D0E700230380032070BD012070BDCA
:10616000235B0020F84B0020F04B0020DE5800207D
:10617000644A00200D2810B5014615D00B4C237839
:106180002BB90B4803F055F848B9012306E00A285B
:1061900005D1074803F04DF808B1002323700548E6
:1061A000FFF768FF012010BD002010BDDD58002062
:1061B000F04B00206444002008B5054905488022C2
:1061C00003F030F8BDE8084000210348FFF73ABF6C
:1061D0005D580020F04B0020644400202DE9F04180
:1061E00006880546772E31D07E2E40D0002E4ED127
:1061F0002B4CFFF78DFE266026462A4B2A4FDFF8F0
:10620000B0801870236857F823204AB1002108F89D
:106210000310936880209847336801333360F1E7B7
:10622000224A1370772320E0214AD256002A12DB3B
:106230001B4A136801331360194B1C4A1B68127800
:106240009A42F1DC1B4B1B68002BEBD0194A002350
:106250001360134AEFE7144A002052F82320114B31
:106260001978FFF7C7FE30B97E232B8014E00D4B61
:106270001B788B4210D10A4B0D491A688B5C03F0D6
:106280007F038B540B4A136801331360D0E700235C
:1062900003800320BDE8F0810120BDE8F08100BF4C
:1062A000FC4B0020245B00201C4400205E59002091
:1062B0001F5B0020004C002010B40A4B0A491A78DA
:1062C0000023934203DA51F82340A04208D1074942
:1062D0000748CA5C62F07F02CA5410BCFFF7CABE0E
:1062E0000133EEE75E5900201C4400201F5B0020B4
:1062F00074440020054A136843F004031360044B00
:106300001B68906943EA002080B2704700700D401E
:1063100014700D4010B5184A136823F00C03136075
:10632000164B01221A601A68012AFCD1144B08226C
:106330001A60E322C3F8142203F505731946114AC3
:106340001368DB07FCD5104C1020002322680138AD
:1063500002F0010243EA02034FEA43039BB2F5D184
:10636000002BF1D0094A180A03F0FE0310601360F5
:10637000EF230B6010BD00BF00700D40A8200D4042
:1063800024860840648608409C86084014700D40AE
:106390002DE9F041054640680F46904602F0C3FFE4
:1063A0000446F0B101F018F80646606030B92146A5
:1063B000686802F0CCFF3046BDE8F081A560C4F803
:1063C0002C8037B12346084A394604F10C00FFF708
:1063D00049FC2B682146186802F06EFF0120BDE8D9
:1063E000F081BDE8F08100BF9793200010B543789D
:1063F000047843EA0420064B00FA01F19B5CC2F1E9
:10640000080003EA212141FA00F0C0B210BD00BF2C
:106410007DAD2000F8B506460A480D46174602F045
:106420002EFF044638B1A3680BB128469847204692
:1064300002F066FFF5E73A4629463046BDE8F840E7
:1064400003F010BB044C002038B500F0DFF905461E
:10645000094802F014FF044630B1636803B198475D
:10646000204602F04DFFF6E725B12846BDE838404A
:1064700003F0F3BA38BD00BF044C002001460148C8
:1064800002F01ABF044C00200146014802F001BF8F
:10649000044C002010B5044600F0C6F938B101F0F4
:1064A00027F8034B034821469B689847012010BDFD
:1064B000C0A120001564200070B50B4C0023616E54
:1064C0000A4A04F13800FFF7CDFBFFF713FF616EB6
:1064D0000023B0FBF1F5064A05FB110104F1180099
:1064E000BDE87040FFF7BEBB084C0020F5642000FB
:1064F0000D652000044B5A6E196E52008A4294BFFB
:106500005A665966FFF7D8BF084C002010B501F055
:1065100079F801F011F800230380044600F054F9E3
:1065200068B1037B5BB12388818804EB83025180CF
:10653000C18801339180238002F0E2FEF0E72088D9
:106540008000023080B200F0B7FF238823B1BDE89D
:106550001040024800F0E2B810BD00BF084C002017
:106560009DF80030012B04D1024B9A6D5A66FFF75B
:10657000A3BF7047084C0020F8B50F4616461D46CD
:10658000064C0146064A204600F0B6F8A765E665C7
:1065900025660448BDE8F84000F010B9084C00201A
:1065A00044A1200061652000014B586E704700BF78
:1065B000084C002038B5B0F87C300446792B22D046
:1065C0007D2B2FD04BBBD4F8843094F88950194AD6
:1065D00003FA05F52946234604F13C00FFF742FB88
:1065E000FFF788FE6D08B0FBF5F101FB15012346AE
:1065F000104A294404F11C00FFF734FB002384F8FF
:106600008A30792305E090F88A300BB903F075F8E9
:106610007D23A4F87C30012038BD0023A0F87C3015
:10662000032038BD90F88930032BCCD8013384F88F
:106630008930C8E71597200070B50446172001F08F
:1066400037F894F88830984205D194F88A300133AD
:1066500084F88A3070BDC0B2C31A1B0607D5002368
:1066600084F889302046BDE8704003F046B884F8CD
:106670008800D4F8800008B100F0D0FE00F0ACFE35
:10668000002384F88930A4F87C30C4F880002046C8
:10669000FFF790FFFFF72EFED4F884102346B0FBDF
:1066A000F1F5064A05FB110104F15C00FFF7DAFA87
:1066B000A3692046BDE870401B681847FB96200080
:1066C000F8B5154604461F460E46094A294600F00D
:1066D00013F80023A761C4F88030C4F8846084F8FC
:1066E00089302846BDE8F840024903F04CB800BFA5
:1066F0004CA120008BAD200070B505460C46164617
:10670000044A00F02DFE6E612046BDE8704002494B
:1067100003F039B854A1200091AD200010B5044613
:1067200004491A2000F0CAFF2046BDE8104003F0DB
:1067300092B900BF1C5B0020014802F09DBD00BF64
:10674000744C002073B50026818006738260014678
:106750000446074802F0B0FD064B1D6835B1012321
:106760000093E288217BA0883346A84702B070BD21
:10677000744C0020784C002037B50A46064C0121A5
:106780002468C3880173C2801CB1002580880095ED
:10679000A04703B030BD00BF784C002013B5064BB6
:1067A0001C6834B1C3880122017B808800921A469C
:1067B000A04702B010BD00BF784C0020014B18600C
:1067C000704700BF784C0020014802F058BD00BF60
:1067D000744C00202DE9F04106460B480C46174644
:1067E00002F04DFD70B18388A34208D185684DB198
:1067F0003B4622463146AC46BDE8F041604702F0D8
:106800007FFDEFE7BDE8F081744C0020054B10B52B
:106810001B689847044618B18188012000F040FFAA
:10682000204610BD2CA1200038B5064B05465B68FC
:1068300098470446A988012000F032FF201C18BFA9
:10684000012038BD2CA12000014B9B68184700BFD8
:106850002CA12000014802F00FBD00BF7C4C00209D
:1068600081800146014802F027BD00BF7C4C00201A
:1068700010B50446054802F002FD28B18388A34202
:1068800002D002F03DFDF8E710BD00BF7C4C0020B7
:1068900070B50646406802F0F2FC054648B12B8907
:1068A000284601332B816B8901336B8102F028FD6F
:1068B000F3E7706802F0E3FC0446D0B163890A2B69
:1068C00004D104F10C0003F0D2F865812389B42BC4
:1068D0000BD121460C4802F03AFD2146706802F0C7
:1068E000D8FC706802F0CBFC0446204602F008FD9C
:1068F000E2E7334606F10800044A4FF4F051BDE8E0
:106900007040FFF7AFB900BF8444002091682000B9
:10691000044B1A7822B9012203481A7002F0F3BC22
:10692000704700BF5F5900208444002010B5044622
:1069300000236060036002F09FFC606802F09CFC32
:10694000234604F10800034A8021BDE81040FFF708
:1069500089B900BF91682000F8B5054617460E4674
:1069600009B90020F8BD0028FBD0406802F087FC80
:10697000044640B13146201D03F0DCF860B92046E2
:1069800002F0BEFCF4E7144802F0CDFC044688B1E6
:106990002146686802F090FC00253146201D2581C3
:1069A00003F0C5F804F10C00E78003F060F865819E
:1069B0000120F8BD686802F062FC254638B1C38842
:1069C0009D423CBF04461D4602F09AFCF6E7BD42DC
:1069D000C7D9002CC5D0DFE78444002038B5044671
:1069E0000D4600F00FFE94F8F6101720013989B219
:1069F00000F056FE11491C2000F060FE0121152018
:106A000000F04EFE0121162000F04AFEA9B211202E
:106A100000F046FE042000F0C1FD04F1EC0104F199
:106A2000800002F0BCFE38B12246A90204F17800D1
:106A3000BDE83840FFF7ACBC38BD00BF1C5B002090
:106A400038B5094A044603460D4650304FF400510C
:106A5000FFF708F9FDF798FB291DC4F8F800204658
:106A6000BDE8384002F0EDBFC59920002DE9F341A3
:106A700090F8F3500446002D57D1783002F0A0FC76
:106A8000002852D002F0BFFC00284ED004F1EC08E0
:106A900000F0DAFC414604F1800002F080FE064678
:106AA000A0B30127414604F1EE0084F8F37003F02F
:106AB0003EF884F8F450112000F0FAFD394684F8CD
:106AC000F5000F2000F0ECFD94F8F51009200229E4
:106AD00028BF022100F0E4FD94F8F2100E2000F02F
:106AE000DFFD134A019513693B441361B4F8F0309C
:106AF000ADF8063000F020FD0346019831461860DD
:106B0000204602B0BDE8F041FFF79ABF94F8F73095
:106B10005BB11C34204640F2FF11FFF72DFE2046EA
:106B200002B0BDE8F041FFF739BE02B0BDE8F08128
:106B3000A85A00202DE9F047B0F8F0600446002E76
:106B400062D000F1800700F1EC052946384602F0DA
:106B500026FE8246384602F064FE814618B3BAF13A
:106B6000000F08D1011D284602F0E1FF274A1368F3
:106B70000133136012E002F04BFE8046504602F0F3
:106B800047FE08F10C0880451ADA09F1040128468D
:106B900002F0CDFF1D4A53680133536004F11C001D
:106BA000FFF7FCFD0CE01A49284602F0C3FF18B9B4
:106BB000164A9368013393601549284602F0B7FFDF
:106BC0002946384602F0EBFD38B102F021FE40F2D2
:106BD000FF15002818BF054601E040F2FF1594F8A4
:106BE000F730A4F8F05023B1294604F11C00FFF758
:106BF000C3FD40F2FF139E4206D1B54204D02046A9
:106C0000BDE8F047FFF732BFBDE8F087A85A002083
:106C1000DAA220002DE9F04105460E2090460E46EE
:106C200000F046FD074600F0EDFC042000F044FCB7
:106C300000F082FC00240460B5F8F0303146438057
:106C400080F800801B2000F039FD01210D2000F0AC
:106C500027FD21460F2000F023FD2146192000F0DA
:106C60001FFD39460E2000F01BFD0521092000F014
:106C700017FD3146284602F0E4FE034AD36801338B
:106C8000D360BDE8F08100BFA85A002073B5044668
:106C9000FFF730FB3C2100F07F0023464143204AB0
:106CA00004F1CC00FEF7DEFFB4F8F030B3B340F2ED
:106CB000FF12934232D004F1780002F081FB68BBEE
:106CC00004F1800002F081FD02F0D9FA054628B3F4
:106CD000EB88B4F8F020083393421BDA05F10C007E
:106CE00002F0EDFEB0B904F1EC06314601A802F065
:106CF0001EFF291D304602F01AFF0F212046FFF724
:106D00006DFE10B12046FFF7B1FE01A9304602F03A
:106D10000EFF03E0284602F0F3FAD7E702B070BD99
:106D20008D6C200070B5D0F8C830054600F1A8067B
:106D300083B1FFF7DFFAD5F8C8402B466408B0FBF3
:106D4000F4F101FB1401064A21443046BDE87040CD
:106D5000FEF788BF3046BDE87040FEF78DBF00BF2C
:106D60009799200070B505460D20144600F0A0FC50
:106D7000F0B995F8F42095F8F5302244D2B2934258
:106D800085F8F42007D8284602F0EBFD094A536B3A
:106D90000133536370BDFFF7ADFAC1B22B4605F165
:106DA0005000054A01F58071BDE87040FEF75ABFFA
:106DB00070BD00BFA85A0020C5702000F8B5074676
:106DC00000F084FB04281AD90D4D17202C7800F010
:106DD0006FFC0C4E06EBC404A0711C202C7800F054
:106DE00079FC06EBC40404340146204602F09FFE01
:106DF0002B7846F83370013303F00F032B70F8BD86
:106E00006E590020804E00202DE9F347044600F023
:106E100093FB006804F1800600901A2000F05AFCF1
:106E20000146304602F0BBFC30B1BDF8021002F062
:106E3000D4FC2046FFF77EFE0D2000F039FC002830
:106E400040F0C2809C4D1A206B6904F17808013330
:106E50006B6100F03FFC014601A802F068FE40466D
:106E600002F0CDFA954E0228D4BF0027802706F104
:106E7000800956F8043C9C4217D1172096F802A0CE
:106E800000F016FC824510D11C2000F023FC0146C6
:106E9000304602F04FFE40B13A4601A92046FFF7C6
:106EA000B9FE2B6A01332B6203E108364E45E0D16F
:106EB000B4F8F090B9F1000F32D12046FFF77EFF11
:106EC00000F08AFA064658B14A4601A92046FFF763
:106ED000A1FE304600F0B8FA304600F09FFA02E01A
:106EE0002B6B01332B63042000F0D2FA00F0EEFA92
:106EF000002800F0DE80E36C1C68002C00F0D980D4
:106F00001C2000F0E7FB0546172000F0D1FB0646E9
:106F1000152000F0CDFBF1B2C2B22846A047C8E070
:106F2000162000F0C5FB01283FD940F2FF12B4F84B
:106F3000F030934239D0BDF8022015209A4298BF14
:106F400047F0100700F0B4FB411C89B2152000F097
:106F5000A7FB162000F0ACFB411E89B2162000F002
:106F60009FFB404602F04BFA022814DC112000F08F
:106F70009FFB224681024046FFF70AFA58B120469D
:106F8000FFF71CFF20463A4601A9FFF743FE2046C3
:106F9000FFF76CFD8DE047F0C00201A92046FFF726
:106FA00039FE6B6A01336B6283E0162000F080FBD0
:106FB00001287ED847F0600201A92046FFF72AFE8B
:106FC000EB6A0133EB6274E00D2000F071FB0128E5
:106FD0006FD11A2000F07EFB04F1EE0102F0AAFD51
:106FE000354D00285FD00E2000F062FB94F8F2309F
:106FF000834258D1AB690133AB6100F09DFA94F83C
:10700000F4300068019013B9022384F8F4301A2098
:1070100000F060FB0146304602F0C1FB064658B165
:1070200094F8F41002F0E9FB3046BDF8061002F0C7
:10703000D4FB2046FFF77EFD9DF8047038060CD582
:1070400046B1304602F00BFC94F8F510304649008A
:1070500002F0D3FB2046FFF76DFD790603D42046EE
:1070600002F020FC15E0BA06F9D494F8F510304689
:1070700002F0C3FB2046FFF75DFDFFF73BF9C0F3CD
:10708000080123460E4A01F5007104F15000FEF795
:10709000E9FDFB0603D504F11C00FFF77FFB20464A
:1070A000FFF740FE02E0EB690133EB61AB690133AE
:1070B000AB6102B0BDE8F087A85A0020844E0020E2
:1070C000C5702000F7B590F8F42090F8F53004462C
:1070D0009A4206D302F045FC2C4A536B01335363AA
:1070E00052E0002380F8F330783002F069F900288C
:1070F0004AD002F088F90546002845D02046FFF71F
:1071000019FD04F1EC07284604F1EE0500F09CF9A6
:107110003946284602F00EFD064628B9394628466B
:1071200002F005FD84F8F460294604F1800002F0C5
:1071300036FB054640B3012184F8F3100F2000F020
:10714000AFFA94F8F53094F8F4100920591A02298E
:10715000A8BF022189B200F0A3FA94F8F2100E2021
:1071600000F09EFA00230193B4F8F030ADF8063039
:1071700000F0E2F90346019829461860204603B062
:10718000BDE8F040FFF75CBC03B0F0BDA85A00209A
:107190002DE9F04704469946904640F2FF160F4607
:1071A0004D1CADB2204A294600F0C8F81F492846B8
:1071B00002F0E9FA0A2304F1700084F8F2300023A7
:1071C00084F8F63023676067A4F8F060C4F84C9048
:1071D00084F8F78002F050F804F18000FFF7A6FB76
:1071E00004F17403A367124B04F11C05E367FFF776
:1071F0008FFB104A39462846FFF7A4FA94F8F73077
:107200001BB131462846FFF7B7FAFFF773F83C2168
:1072100000F07F0023464143074A04F1CC00BDE85B
:10722000F047FEF71FBD00BF5CA1200095AD200018
:1072300090440020D59820008D6C200070B5044645
:107240000D4690F8F610172000F02AFA94F8F63060
:107250002E49013313F0FF0F08BF802384F8F63066
:107260001C2000F02BFA0121152000F019FA0F2143
:10727000162000F015FA1F2DCCBF1F21A9B2112036
:1072800000F00EFAB4F8F010A9B9152000F008FAD1
:10729000E36C1C68B4B31C2000F01CFA05461720F0
:1072A00000F006FA0646152000F002FAF1B2C2B26A
:1072B0002846A04726E0042000F070F9112000F0D5
:1072C000F7F92246810204F17800FFF761F820B156
:1072D0002046FFF7CBFB012500E0054604F1EC0159
:1072E00004F1800002F05BFA70B994F8F7305BB1FA
:1072F0001C34204640F2FF11FFF73EFA2046FFF70C
:107300004DFA01E0012070BD284670BD1C5B0020D5
:1073100070B504461B200D4600F0DCF9064902F06A
:1073200009FC38B1A3691B6823B129462046BDE892
:107330007040184770BD00BF1C5B002070B505464B
:107340000C461646044AFFF7D7F9AE612046BDE861
:107350007040024902F017BA64A12000A9AD2000D4
:1073600070B505460C461646FFF77AFA2E612046A0
:10737000BDE87040014902F006BA00BFAFAD200081
:1073800010B5054801F07BFF002418B1013401F06D
:10739000B7FFFAE7204610BD004F002038B505467C
:1073A000054801F06CFF002428B1AC4203D0013441
:1073B00001F0A6FFF8E738BD004F002008B50448EB
:1073C00001F0A1FFBDE80840024801F09CBF00BFEA
:1073D000A84400209C44002038B50E4801F0A3FFCB
:1073E0000446A8B10C4801F09EFF0546206028B96C
:1073F0002146084801F0ABFF284638BD00F0A4F84C
:1074000005F1B601A5F8800005F1820000F020F931
:10741000204638BD9C440020A844002010B50146F9
:107420000446074801F0A9FF48B12168054801F06A
:107430008EFF2146BDE81040014801F088BF10BD15
:107440009C440020A844002010B501460446094889
:1074500001F093FF68B12468B4F88010204600F072
:10746000E1F804F1B60104F18200BDE8104000F03B
:1074700003B910BD9C44002010B5014604460348E2
:1074800001F07BFF00B1206810BD00BF9C440020CC
:1074900010B507490B88834208DB064C80B222886E
:1074A0000244181A08802280012010BD002010BD5F
:1074B000B8570020BA570020014B1880704700BF12
:1074C000B857002000487047244F0020014B18880F
:1074D000704700BFB8570020034A044B10781B7850
:1074E0001844C0B2704700BF7F590020BA5700202F
:1074F0002DE9F0410C4B1A881D469AB10B4BDFF871
:1075000034801E880A4B00241F7821B2B14204F156
:10751000010405DAFFF7E0FF41440B5CCB55F4E7CB
:1075200000232B80BDE8F081BA570020B857002017
:107530007F590020244F002008B5FFF7CDFF014BF5
:10754000184408BD244F0020F8B50C4B07461C78A2
:107550000B4B1E88A519802D0CDC2246094901F031
:107560005DF9FFF7E9FF3C4401463246204601F051
:1075700055F900E000252846F8BD00BF7F590020DE
:10758000B8570020244F002008B5FFF7A5FF024B95
:107590001B88184480B208BDB857002010B50146BA
:1075A000FFF7F2FF4318802B10DC0138084B00B2C4
:1075B000002805DB1C5C1A180138545400B2F7E7A8
:1075C000044B01201A781144197010BD002010BD21
:1075D000244F00207F59002038B53422002106486E
:1075E00001F092F9054D002428190549023402F0F2
:1075F0009EFA082CF8D138BDE85A0020E05A002045
:10760000DAA22000044A00231380044A1380044AAB
:107610001370FFF7E1BF00BFBA570020B857002032
:107620007F59002038B50C460546FFF7EBFF802C4C
:1076300028BF802422462946034801F0EFF8034B77
:1076400020461C8038BD00BF244F0020B8570020C2
:1076500010B5074B03F1340253F8044B934240F842
:10766000044BF9D1034A13680B6053684B6010BD9B
:10767000E85A0020E05A002010B5074B00F1340210
:1076800050F8044B904243F8044BF9D10B68034A7D
:1076900013604B68536010BDE85A0020E05A002088
:1076A000024B23F810100120704700BFE85A002059
:1076B000014B33F810007047E85A002008B5044B1E
:1076C0001A3803EB400002F032FA012008BD00BF77
:1076D000E05A0020024B1A3803EB4000704700BF0D
:1076E000E05A00200149024802F024BADAA2200040
:1076F000E25A0020084B10B51B689847074B5B689F
:107700009847074B5B689847064B5B689847BDE80E
:107710001040054B5B681847D4A0200094A12000BE
:10772000C0A1200078A1200038A120002DE9F0415F
:10773000FCF72AFD0446114F00254FF00C0808FB0A
:1077400005761A20FFF7C6FF314602F0F3F988B13B
:107750000A20FFF7ADFF337A834202D00020BDE854
:10776000F0817068201AB0F5206F8CBF00200120D6
:10777000BDE8F0810135102DE1D1EFE7A44F0020E5
:1077800070B5184E00241A20FFF7A4FF0C2101FB4E
:10779000046102F0CFF9134D631C10B9102B1C4685
:1077A000F1D1013B0C2202FB0352A2F10C0643B1C2
:1077B000344603CC106051602068013B9060324633
:1077C000F3E70A20FFF774FF2872FCF7DDFC68601E
:1077D0001A20FFF77FFFBDE870400146014802F024
:1077E000A6B900BFA44F002030B591B0054600F007
:1077F0008FF84FF6FF73984202D14FF0FF3081E0CF
:1078000040220021684601F07FF83F4B1A782AB9E0
:1078100001221A70FEF76EFD3C4B18701420FFF722
:1078200047FF8DF810001320FFF742FF8DF812007C
:10783000FFF758FF044628B100238DF813308DF868
:10784000153006E00B20FFF733FF8DF815408DF85B
:107850001300002301248DF814308DF81840ADB1C9
:107860000A20FFF725FF28B10A20FFF721FF8DF836
:107870001A000BE0254B1A7802B91C7019780A20FF
:107880004A1C1A708DF81A10FFF70AFF02248DF8AF
:10789000194000F03DF8ADF81C00FFF723FF38B1A8
:1078A000FF238DF817408DF800308DF8013008E087
:1078B0001B20FFF70FFF0146684602F038F98DF8EC
:1078C000174000F025F8ADF81E001A20FFF702FF60
:1078D000014602A802F02BF9FFF72EFE0E90FFF7EB
:1078E000F5FD0F90684602F024FA04464DB1FFF70B
:1078F00055FE002881D0FFF7E5FD0146684602F0FD
:1079000061FA204611B030BD815900208059002015
:10791000014B1888704700BFEC4400202DE9F0416E
:10792000012986B006460F46144640F3838003A91A
:1079300002F092FA03AB03CB1B88206123839DF8EE
:10794000113061610BB1B51C02E0B378F51CA37670
:1079500002AA01A903A802F04AF99DF81380B8F120
:10796000000F23D0029B23B16A7815F8023B03EB8A
:107970000223B8F1020FA38309D13049204602F057
:10798000D6F86B78237015F8023B637014E0B8F1F9
:10799000030F11D105F108021346611E13F8010D02
:1079A000AB4201F8010FF9D1154605E02349204605
:1079B00002F0BDF8A4F81C809DF81580B8F1000F06
:1079C0002BD0019B53B16A7815F8023B03EB0223DD
:1079D000029A9BB2E3831AB9A38301E0A38BE383EA
:1079E000B8F1020F0AD1154904F1080002F09FF81E
:1079F0006B78237215F8023B637215E0B8F1030F40
:107A000012D105F108021346E11D13F8010D9D4244
:107A100001F8010FF9D1154606E0084904F1080004
:107A200002F085F8A4F81E80A81B3B1A8742E36386
:107A3000A56300DA002006B0BDE8F081DAA22000DC
:107A4000014BDB68184700BFC0A12000014B5B69F8
:107A5000184700BF94A12000014B9B69184700BF45
:107A600094A12000024BD86900B10047704700BFC5
:107A700094A1200013B5044668B1006B01F0FFFB30
:107A8000024640B12146054B0548DB68019302B030
:107A9000BDE81040184702B010BD00BF94A12000FF
:107AA000B19E200070B590F829400123032C88BFB7
:107AB000042403FA04F40C4B0546DB6998470028BC
:107AC00008BF0120013C444305D0FEF713FCB0FB86
:107AD000F4F303FB14042B46214605F10800034A86
