:020000002828AE
:100008007E14803120007F08F1002700931E1528F8
:100018007908031D152893120230F0007008F900C2
:100028001C28931E1C28790803191C289312F9010F
:100038000B1D21280B11FB01FB0A93189310710863
:100048002000FF007E1009002928F701F801F901B6
:10005800FA01FB0120308400003085001930FE20B1
:100068007E102000932820000C1A37282130890B95
:100078003B2800000130F7000030F8007808803A8B
:10008800F4008030740208300319770203186A28D4
:10009800203020009500FB0177082A3E8600870162
:1000A80000300C1A013081007B0803195828FB0125
:1000B8000130F7070030F83D7808803AF4008030C6
:1000C8007402083003197702031C4C282000AA0187
:1000D800AA0AB401B5010730F7000030F800F81B90
:1000E8008E287703FF3A073E2A3E860087010108DB
:1000F800F400F501770A8228F435F50D890B80287C
:100108007408B4047508B504FF30F707FF30F83DEC
:10011800F81F75283508F3003408F2000800DB20C2
:1001280021000C108B170B17F9018B15CF286300D2
:10013800CF28CE28372073082000BA007208B900EB
:10014800A53039063A04031DB5280C140730F6000B
:100158007D30890BAD28F60BAD28000020000C106F
:10016800CF28813039063A04031DCE28D630003214
:100178000032890BBB28003220000C140730F6002F
:100188007D30890BC528F60BC528000020000C100F
:10019800B601CF28F9017908003A03199B28013ADA
:1001A80003199D28033A03199E28CE28CF28210039
:1001B80099131908873960389900FC309905A630D9
:1001C800890BE428003223008C0124008C012100D3
:1001D8008C160C160C108C14270091169212F52010
:1001E80008002100951295111510951015110B1185
:1001F8008B160800640080010131890BFF28003448
:020000040001F9
:04000E0084F9FFDF93
:00000001FF
